:100000009CC0A9C0BDC0A7C0A6C0A5C0A4C0A3C0B5
:10001000A2C0A1C057335700748775C5E9E6F5EE55
:1000200095125B661F0A68FC8A803BFD72017E3870
:100030002B4DC343C7A59ABA7D480D11B6A476A02F
:10004000F666E955E5AC20DB160C651F537AEC55D6
:100050008F6C653D1C3CD2A41FCD962D4071CF51B5
:10006000A60AE6A52270655BAA13080C0AE216B57B
:10007000D66BF1FFA343ECC376A85ECD7D65F5E0BA
:10008000FDF64CFB8CEDBFDB80947EC1A7D4E07500
:100090003955FA8B0AE771E504218C79D5478D54DF
:1000A000E57142DF8BEAD76280D7EEC69419F19FE3
:1000B0009F74A76ABBF00612B07F49BAB0E142B69E
:1000C00045C5F0DA873154F8922381A43779F33AA1
:1000D000F20E21231C265553620CBC1676F9B90D7D
:1000E00004387F73E888DFA59EC25EE2FABB8B4FBF
:1000F000196C903E975006AF020E0E178F589D61F7
:100100000C13173316B820728CFAAF0844A963E5B4
:10011000FCD61B439338C12F79CE664564C694BB89
:10012000449EDFA17A89BE664414999F7C0923040A
:100130008393EABB78A42DDAAD0011241FBECFE96A
:10014000CDBF20E0A0E6B0E001C01D92A239B20709
:10015000E1F702D0EBC054CFC49AB39AAB9A8BB7F5
:1001600080628BBF1092600010929100109261002B
:100170008FE697E10197F1F700C000007894FFCF78
:100180001F920F920FB60F9211242F933F934F930C
:100190005F938F939F93AF93BF93EF93FF93B39B23
:1001A000B6C08091610090919100E92FF0E0EE5986
:1001B000FF4F81118DC08081880F8083B49B02C066
:1001C00081608083809160008F5F87708093600082
:1001D00081119DC09F5F909391009A3009F097C064
:1001E00010929100BC9A80916A0040916400409303
:1001F0006A008093640080916B0050916600509378
:100200006B0080936600E2E6F0E080E090E09827E3
:100210008927982721918227282F22952F708227BE
:100220009C01322F22273295307F28273927C90198
:100230009927B5E0880F991FBA95E1F78227932790
:1002400020E0EA36F20719F7352F20E0242B821739
:10025000930751F0E0919100AE2FB0E0AE59BF4F3F
:100260008C9187FF25C022C0909169008091620027
:100270009823A2E6B0E080E0E82FE90FF0E0E75C29
:10028000FF4FE4912C912E272D938F5F8A30A1F799
:10029000ACE6B0E080E090E0FC01EC5EFF4FE49162
:1002A000ED93019685329105B9F7D4CFC49A01C078
:1002B000C498F0E0EE59FF4F8081880F80838091D1
:1002C00060008F5F8093600081E0809361001FC0B9
:1002D000808187FF02C0C49A01C0C49890919100A8
:1002E000E92FF0E0EE59FF4F8081880F80838091E5
:1002F00060008F5F877080936000811108C0892F34
:100300008F5F809391008F3211F410929100FF91D2
:10031000EF91BF91AF919F918F915F914F913F91DD
:100320002F910F900FBE0F901F901895F894FFCF4C
:00000001FF
